{
    "txid": "3b50b683f2596ca5c02c8cabc9a30e803382625e80492f938fee98a568ec0392",
    "hash": "6bae681279770ef0f1f1a05da135c7d1e8fa95856a3a7b879972b4c8f16766d2",
    "version": 2,
    "size": 205,
    "vsize": 154,
    "weight": 616,
    "locktime": 103,
    "vin": [
      {
        "txid": "72eaf466c192811027039d78dc47b1ff216ed0d808b6dba60a8feccc2c471950",
        "vout": 0,
        "scriptSig": {
          "asm": "",
          "hex": ""
        },
        "txinwitness": [
          "a0693d6a99028f338664344badfd32c11e4c2eca41c99cd9229062a025186378308c3f994e67f869d5ad564babace486f3ad68e85caa6108d2e14ebf91c8e272"
        ],
        "sequence": 4294967293
      }
    ],
    "vout": [
      {
        "value": 49.93000000,
        "n": 0,
        "scriptPubKey": {
          "asm": "1 91e7c723b8b3b1c05dface8c4d35a8244d4edf63c0a19c3db78dd962abe93062",
          "desc": "rawtr(91e7c723b8b3b1c05dface8c4d35a8244d4edf63c0a19c3db78dd962abe93062)#9j6ql38c",
          "hex": "512091e7c723b8b3b1c05dface8c4d35a8244d4edf63c0a19c3db78dd962abe93062",
          "address": "bcrt1pj8nuwgackwcuqh06e6xy6ddgy3x5ahmrczsec0dh3hvk92lfxp3qvsctza",
          "type": "witness_v1_taproot"
        }
      },
      {
        "value": 0.00999845,
        "n": 1,
        "scriptPubKey": {
          "asm": "1 1b8769aa6e1d7c5d5958903544e4f7233ef061c9988b00e46596e7100a6bf4a3",
          "desc": "rawtr(1b8769aa6e1d7c5d5958903544e4f7233ef061c9988b00e46596e7100a6bf4a3)#69dm5cxg",
          "hex": "51201b8769aa6e1d7c5d5958903544e4f7233ef061c9988b00e46596e7100a6bf4a3",
          "address": "bcrt1prwrkn2nwr4796k2cjq65fe8hyvl0qcwfnz9sper9jmn3qznt7j3snlxpgc",
          "type": "witness_v1_taproot"
        }
      }
    ],
    "hex": "020000000001015019472cccec8f0aa6dbb608d8d06e21ffb147dc789d0327108192c166f4ea720000000000fdffffff0240229b290100000022512091e7c723b8b3b1c05dface8c4d35a8244d4edf63c0a19c3db78dd962abe93062a5410f00000000002251201b8769aa6e1d7c5d5958903544e4f7233ef061c9988b00e46596e7100a6bf4a30140a0693d6a99028f338664344badfd32c11e4c2eca41c99cd9229062a025186378308c3f994e67f869d5ad564babace486f3ad68e85caa6108d2e14ebf91c8e27267000000",
    "blockhash": "0711c61861fe24146d54bc57f8126ae36f67d00fd0a640e3c71b45d17ae474e8",
    "confirmations": 2,
    "time": 1711889620,
    "blocktime": 1711889620
  }
  
  {
    "txid": "3b50b683f2596ca5c02c8cabc9a30e803382625e80492f938fee98a568ec0392",
    "vout": 0,
    "address": "bcrt1pj8nuwgackwcuqh06e6xy6ddgy3x5ahmrczsec0dh3hvk92lfxp3qvsctza", // address of v_out
    "scriptPubKey": "512091e7c723b8b3b1c05dface8c4d35a8244d4edf63c0a19c3db78dd962abe93062", //hex of v_out
    "amount": 49.93000000,
    "confirmations": 2, // conf of tx
    // "spendable": true,
    // "solvable": true,
    "desc": "tr([585baa61/86h/1h/0h/1/15]650bb5bdb32b31249a7475ef42862d4d4a3c3c488b1b9d41596a71fa00a7be34)#ytvf249r",
    // "parent_descs": [
    //   "tr(tpubD6NzVbkrYhZ4XmVXtuqDTtdyic7EEvVPUkkfcxiuKxGY4n9LPooFrpcxAwv8Q1kab96j8eLywdVN9vwEAM11kvJtCaqggSwECUcaAE3e8Mj/86h/1h/0h/1/*)#3983yjcd"
    // ],
    // "safe": true
  }
